{
  "contractName": "energymeter",
  "abi": [
    {
      "inputs": [
        {
          "internalType": "string",
          "name": "v",
          "type": "string"
        },
        {
          "internalType": "string",
          "name": "c",
          "type": "string"
        },
        {
          "internalType": "string",
          "name": "p",
          "type": "string"
        }
      ],
      "name": "insertData",
      "outputs": [],
      "stateMutability": "nonpayable",
      "type": "function"
    },
    {
      "inputs": [],
      "name": "viewData",
      "outputs": [
        {
          "internalType": "string[]",
          "name": "",
          "type": "string[]"
        },
        {
          "internalType": "string[]",
          "name": "",
          "type": "string[]"
        },
        {
          "internalType": "string[]",
          "name": "",
          "type": "string[]"
        }
      ],
      "stateMutability": "view",
      "type": "function"
    }
  ],
  "bytecode": "0x608060405234801561001057600080fd5b50610a5f806100206000396000f3fe608060405234801561001057600080fd5b50600436106100365760003560e01c80634f5abaa31461003b5780637ba0975914610057575b600080fd5b61005560048036038101906100509190610504565b610077565b005b61005f61011b565b60405161006e939291906106f5565b60405180910390f35b6000839080600181540180825580915050600190039060005260206000200160009091909190915090816100ab9190610957565b506001829080600181540180825580915050600190039060005260206000200160009091909190915090816100e09190610957565b506002819080600181540180825580915050600190039060005260206000200160009091909190915090816101159190610957565b50505050565b606080606060006001600282805480602002602001604051908101604052809291908181526020016000905b828210156101f357838290600052602060002001805461016690610770565b80601f016020809104026020016040519081016040528092919081815260200182805461019290610770565b80156101df5780601f106101b4576101008083540402835291602001916101df565b820191906000526020600020905b8154815290600101906020018083116101c257829003601f168201915b505050505081526020019060010190610147565b50505050925081805480602002602001604051908101604052809291908181526020016000905b828210156102c657838290600052602060002001805461023990610770565b80601f016020809104026020016040519081016040528092919081815260200182805461026590610770565b80156102b25780601f10610287576101008083540402835291602001916102b2565b820191906000526020600020905b81548152906001019060200180831161029557829003601f168201915b50505050508152602001906001019061021a565b50505050915080805480602002602001604051908101604052809291908181526020016000905b8282101561039957838290600052602060002001805461030c90610770565b80601f016020809104026020016040519081016040528092919081815260200182805461033890610770565b80156103855780601f1061035a57610100808354040283529160200191610385565b820191906000526020600020905b81548152906001019060200180831161036857829003601f168201915b5050505050815260200190600101906102ed565b505050509050925092509250909192565b6000604051905090565b600080fd5b600080fd5b600080fd5b600080fd5b6000601f19601f8301169050919050565b7f4e487b7100000000000000000000000000000000000000000000000000000000600052604160045260246000fd5b610411826103c8565b810181811067ffffffffffffffff821117156104305761042f6103d9565b5b80604052505050565b60006104436103aa565b905061044f8282610408565b919050565b600067ffffffffffffffff82111561046f5761046e6103d9565b5b610478826103c8565b9050602081019050919050565b82818337600083830152505050565b60006104a76104a284610454565b610439565b9050828152602081018484840111156104c3576104c26103c3565b5b6104ce848285610485565b509392505050565b600082601f8301126104eb576104ea6103be565b5b81356104fb848260208601610494565b91505092915050565b60008060006060848603121561051d5761051c6103b4565b5b600084013567ffffffffffffffff81111561053b5761053a6103b9565b5b610547868287016104d6565b935050602084013567ffffffffffffffff811115610568576105676103b9565b5b610574868287016104d6565b925050604084013567ffffffffffffffff811115610595576105946103b9565b5b6105a1868287016104d6565b9150509250925092565b600081519050919050565b600082825260208201905092915050565b6000819050602082019050919050565b600081519050919050565b600082825260208201905092915050565b60005b838110156106115780820151818401526020810190506105f6565b83811115610620576000848401525b50505050565b6000610631826105d7565b61063b81856105e2565b935061064b8185602086016105f3565b610654816103c8565b840191505092915050565b600061066b8383610626565b905092915050565b6000602082019050919050565b600061068b826105ab565b61069581856105b6565b9350836020820285016106a7856105c7565b8060005b858110156106e357848403895281516106c4858261065f565b94506106cf83610673565b925060208a019950506001810190506106ab565b50829750879550505050505092915050565b6000606082019050818103600083015261070f8186610680565b905081810360208301526107238185610680565b905081810360408301526107378184610680565b9050949350505050565b7f4e487b7100000000000000000000000000000000000000000000000000000000600052602260045260246000fd5b6000600282049050600182168061078857607f821691505b60208210810361079b5761079a610741565b5b50919050565b60008190508160005260206000209050919050565b60006020601f8301049050919050565b600082821b905092915050565b6000600883026108037fffffffffffffffffffffffffffffffffffffffffffffffffffffffffffffffff826107c6565b61080d86836107c6565b95508019841693508086168417925050509392505050565b6000819050919050565b6000819050919050565b600061085461084f61084a84610825565b61082f565b610825565b9050919050565b6000819050919050565b61086e83610839565b61088261087a8261085b565b8484546107d3565b825550505050565b600090565b61089761088a565b6108a2818484610865565b505050565b5b818110156108c6576108bb60008261088f565b6001810190506108a8565b5050565b601f82111561090b576108dc816107a1565b6108e5846107b6565b810160208510156108f4578190505b610908610900856107b6565b8301826108a7565b50505b505050565b600082821c905092915050565b600061092e60001984600802610910565b1980831691505092915050565b6000610947838361091d565b9150826002028217905092915050565b610960826105d7565b67ffffffffffffffff811115610979576109786103d9565b5b6109838254610770565b61098e8282856108ca565b600060209050601f8311600181146109c157600084156109af578287015190505b6109b9858261093b565b865550610a21565b601f1984166109cf866107a1565b60005b828110156109f7578489015182556001820191506020850194506020810190506109d2565b86831015610a145784890151610a10601f89168261091d565b8355505b6001600288020188555050505b50505050505056fea2646970667358221220e8e4e52e3807629a91120d86426ddc8a5825abd8cdb60e52c0ae5372a906f54764736f6c634300080f0033",
  "immutableReferences": {},
  "source": "// SPDX-License-Identifier: MIT\npragma solidity >=0.4.22 <0.9.0;\n\ncontract energymeter {\n  string[] _v;\n  string[] _c;\n  string[] _p;\n\n  function insertData(string memory v, string memory c, string memory p) public {\n    _v.push(v);\n    _c.push(c);\n    _p.push(p);\n  }\n\n  function viewData() public view returns(string[] memory,string[] memory,string[] memory) {\n    return(_v,_c,_p);\n  }\n  \n}\n",
  "sourcePath": "/Users/ms/Desktop/Blockchain-for-cyber-security-in-smart-grid/contracts/energymeter.sol",
  "compiler": {
    "name": "solc",
    "version": "0.8.15+commit.e14f2714.Emscripten.clang"
  },
  "schemaVersion": "3.4.8",
  "updatedAt": "2023-03-17T11:11:05.526Z",
  "devdoc": {
    "kind": "dev",
    "methods": {},
    "version": 1
  },
  "userdoc": {
    "kind": "user",
    "methods": {},
    "version": 1
  }
}